:0C01ED00C0F9A4B0999282F88090BFFF86
:0F01DD00C101C100020A000002080000010F006A
:100114001201C412008FAD10AF13120138AD12AF2B
:100124000D12015BAD0EAF1412017EAD0CAF1112B6
:0401340001A180DFC6
:10008F0020B0117F057E001200F420B002D20120B3
:10009F00B04480FB20B1117F057E001200F420B127
:1000AF0002D20020B13080FB20B2157F057E0012F6
:1000BF0000F420B206750A00750B0120B21880FB00
:1000CF0020B3137F057E001200F420B306750800DD
:0700DF0075090130B3FD2299
:1001C40075A0A0E4F58075A0C07580FF75A0FF75CB
:0901D40080FF75A0807580FF22F8
:100138008D1575A0C07580011200E675A0C0758088
:100148000275A0FFE5159001ED93F5807F017E0013
:030158000200F4AE
:10015B008D1575A0C07580041200E675A0C0758062
:10016B000875A0FFE5159001ED93F5807F017E00EA
:03017B000200F48B
:10017E008D1575A0C07580101200E675A0C0758033
:10018E002075A0FFE5159001ED93F5807F017E00AF
:03019E000200F468
:1001A1008D1575A0C07580401200E675A0C07580E0
:1001B1008075A0FFE5159001ED93F5807F017E002C
:0301C1000200F445
:0E00E60075A0FFEF9001ED93F5807F017E0085
:1000F400D3EF9400EE6480948040147D4D7C03ED36
:0F0104001D70011CED4C70F7EF1F70E41E80E1C1
:0101130022C9
:03000000020003F8
:0C000300787FE4F6D8FD75812002004AE9
:10000F00020114E493A3F8E493A34003F68001F2F2
:10001F0008DFF48029E493A3F85407240CC8C333F2
:10002F00C4540F4420C8834004F456800146F6DFC1
:10003F00E4800B01020408102040809001DDE47E73
:10004F00019360BCA3FF543F30E509541FFEE493B6
:10005F00A360010ECF54C025E060A840B8E493A37D
:10006F00FAE493A3F8E493A3C8C582C8CAC583CAA8
:10007F00F0A3C8C582C8CAC583CADFE9DEE780BE60
:0101EC000012
:00000001FF
